:040000000C94210239
:04000C000C947602D8
:040020000C94210A11
:140054004D064B0649064706670667066706670655065306F0
:1400680051064F0667066706670667065D065B0659065706A4
:14007C0067066706670667066506630661065F0600002041BB
:140090000000C8400000A03F0000E14A00002A4300007A441F
:1400A40000000000000000000000000000000000000000F058
:1400B8000E840DDC0B300BF809E008E8070000000000005843
:1400CC0007A606ED059705FB047004F403000000000000D1A4
:1400E0001D921AAC176216EE13C111D00F00006900740084F5
:1400F400008C009D00B000C600000000000000D100EA000797
:14010800011701390160018B0100000000000034003A0042F3
:14011C000046004E005800620005040504060805080B08073A
:140130001005040504060805080C080B10050405040F080D19
:14014400080B08070806100E040E040D080B080C080B1005E7
:14015800040504060805080B08071005040504060805080C08
:14016C00080B10050405040F080D080B08070806100E040EC6
:14018000040D080B080C080B100304030404040504050404E4
:14019400040304020401040104020403040306020202080315
:1401A8000403040404050405040404030402040104010402FD
:1401BC000403040206010201080204020403040104020403EF
:1401D0000204020304010402040302040203040204010402E2
:1401E4000419040308030404040504050404040304040202A3
:1401F8000201040104020403040206010201040F040D020E9A
:14020C00020F040D020E020F020502060207020B020C020D59
:14022000020E020D040B020C020D040302040205020602055C
:14023400020402050203020402050204040602050204040373
:1402480002020203020202010202020302040205020602046E
:14025C000406020502060407020B020502060207020B020C2A
:14027000020D020E020F020F040D020E020F040D020E020FD5
:14028400020502060207020B020C020D020E020D040B020CE8
:14029800020D0403020402050206020502040205020B0207FD
:1402AC00020B0206040B0207020604050204020502040203E8
:1402C0000204020502060207020B0206040B0207020B0407C7
:1402D400020B020702060207020B020C020D020E020F020D95
:1402E800040B020C020D040C020B020C0207020B020C020D78
:1402FC00020C020B0207020B04060207020B0401020202038F
:140310000204020302020203020B0207020B0206040B020782
:1403240002060405020402050204020302040205020602077E
:14033800020B0206040B0207020B040702060207020B020C40
:14034C00020B0207020B02060207020B080508030405040B2C
:140360001006080B0805100508010402040308020401040213
:14037400200508030405040B0C070406080B080510050802D1
:14038800040304040C1B040110011006080B080B10070806B4
:14039C000407040B10060407040B04060406040504030401DA
:1403B0000402200508030405040B0C070406080B0805100599
:1403C4000802040304040C1B04011001101906010901030191
:1403D8000603060209010302060306010901030306050606BA
:1403EC0012060605090303030601060209010302060306019A
:14040000091A031A061906011206060509030303060106023E
:1404140009010302060606050903030306050606120B06055D
:1404280009030303060106020901030206030601091A031A40
:14043C00061906011200CFE5D4E0CDBFDEBFCE51D0400AEAC0
:1404500008830024EAEFF3E013E0EC3FF10711F00192FBCFC9
:140464000083E8EAF0E0A0E6B0E014E000E00BBFE234F1079D
:1404780021F0C89531960D92F9CF0E94A003FFCF84B3806C9E
:14048C0084BB85B38F7385BB0895202E220C220C220C220C00
:1404A000220C220C85B38F7B822985BB0895202E220C220C78
:1404B400220C220C220C220C220C85B38F77822985BB089588
:1404C80022242BBA2ABA28BA27BA25BA24BA22BA21BA08953D
:1404DC00222425BC22BC24BC23BC88E185BD08951A922A9298
:1404F0003A924A925A920A931A932A933A938A939A93AA9309
:14050400EA93FA931FB61A924A935A9320906600222081F4C1
:1405180022243324309261002092600081E090E090936300A6
:14052C0080936200809366008F9AE4C0809162009091630009
:1405400001971C0130926300209262008030890709F0D6C0EA
:1405540088E185BD20906B0030906C00409060005090610030
:140568004214530408F0C4C02090FA033090FB03F201E20D09
:14057C00F31DE081FF27EE0FFF1F8DE690E0E80FF91F008146
:1405900011812EE130E00E94ED0A03BD2090FA033090FB03E2
:1405A400E0916000F0916100E20DF31DE081FF27EE0FFF1FEF
:1405B80085EA90E0E80FF91F008111810E946D0C18012901D0
:1405CC0004E910E00E94200C3A932A931A930A938101920187
:1405E0000E949A0C0E943B0C1093630000936200809160006A
:1405F40090916100019690936100809360002090FA03309076
:14060800FB03FC01E20DF31D208133270E94710B10936300C5
:14061C000093620080916000909161000196909361008093B4
:1406300060001C013694279436942794369427943694279425
:14064400309268002092670022E030E081010E94CD0AA801A9
:140658000030010729F00130E0E01E0721F145C088B38F6FD7
:14066C0088BB209167003091680000E110E00E94710B209156
:14068000600030916100201B310B3695279501E010E00E9473
:14069400340C18012094309448B255244220532048BA82B302
:1406A8008F6F82BB22C088B38F6F88BB82B38F6F82BB209184
:1406BC0067003091680000E110E00E94710B209160003091D9
:1406D0006100201B310B3695279501E010E00E94340C1801EB
:1406E4002094309442B255244220532042BA8CE185BD04C0D9
:1406F8002224209266008F985991499119901FBEF991E9911B
:14070C00A99199918991399129911991099159904990399008
:14072000299019901895F894CFDEAEDE0E94A405D5DE2224AD
:1407340025BE2BBE80E889BF78940895269744275527EFDF1A
:1407480004E110E00E94DD09222700270E94EF08B80100304E
:14075C00010721F10230E0E01E0709F45AC00430E0E01E0728
:1407700009F455C00530E0E01E0709F4CAC00630E0E01E07A7
:1407840009F4EAC00730E0E01E0709F4FBC00830E0E01E07C9
:1407980009F40CC10D30E0E01E0709F42AC1C2C18FEF87BB36
:1407AC0088BB81BB82BB34C04830E0E05E0794F48FEF82BBA9
:1407C00001E010E09A010E94340C18012094309428BA08EC70
:1407D40010E00E94DD094F5F5F4F1EC04830E0E05E07C4F00E
:1407E8004031E0E05E07A4F48FEF88BB9A012850304001E0AA
:1407FC0010E00E94340C18012094309422BA08EC10E00E9424
:14081000DD094F5F5F4F02C044275527CBCF84E0888380E080
:1408240089838A838B8327E007E00E9454080E9444096CC092
:140838000E948E09A80104E610E00E94DD094030E8EF5E07BC
:14084C0060F14050584F80E098E0841B950BAC0100E910E073
:140860000E94200C180129018A010E946F0C3A932A931A9394
:140874000A93810192010E940A0E180129010CE810E00E943B
:14088800200C3A932A931A930A93810192010E949A0C0E945D
:14089C003B0CA8014058514C22C000E910E00E94200C180181
:1408B00029018A010E946F0C3A932A931A930A938101920179
:1408C4000E940A0E180129010CE810E00E94200C3A932A93E7
:1408D8001A930A93810192010E949A0C0E943B0CA80181E072
:1408EC0090E09D838C831A01442437FC4094552447FC50942F
:14090000288239824A825B8223E000270E94990893CF0E9464
:140914000A0AF8940E940E0A222425BE2BBE89B7846089BFF7
:14092800789417C00E94310A0E943B0C109365000093640013
:14093C00180144245524288239824A825B8223E000270E94D3
:14095000540804E610E00E94DD09E8CF0E949E0501E0A5DD76
:1409640004E610E00E94DD090CC00E94A005002331F401E0E1
:140978009ADD04E110E00E94DD09002794DDF3CF0E949805FE
:14098C0001E083DD04E610E00E94DD090CC00E949A05002384
:1409A00031F401E078DD04E110E00E94DD09002772DDF3CF53
:1409B4000E94990A04E610E00E94DD091BC00E94A40AA02E8F
:1409C800002331F401E063DD04E110E00E94DD090E94A80A01
:1409DC005801150144245524288239824A825B8223E000277F
:1409F0000E94540800274FDDE4CF0E94440922E000270E9435
:140A0400EF0858010AE010E095010E94710B58018AC00E94BB
:140A18008E09A80104E610E00E94DD094030E8EF5E0760F12B
:140A2C004050584F80E098E0841B950BAC0100E910E00E9440
:140A4000200C180129018A010E946F0C3A932A931A930A93B7
:140A5400810192010E940A0E180129010CE810E00E94200CCA
:140A68003A932A931A930A93810192010E949A0C0E943B0C60
:140A7C00A8014058514C22C000E910E00E94200C18012901BC
:140A90008A010E946F0C3A932A931A930A93810192010E941F
:140AA4000A0E180129010CE810E00E94200C3A932A931A93FA
:140AB8000A93810192010E949A0C0E943B0CA801A416B50629
:140ACC001CF4AE9AAF9A05C0A416B50614F0AF98AE9881E049
:140AE00090E09D838C831A01442437FC4094552447FC509439
:140AF400288239824A825B8223E000270E94990885E090E09E
:140B08009D838C831501442437FC4094552447FC50942882DB
:140B1C0039824A825B8227E004E00E94990875CF2696089596
:140B300089980895002700B302700895D6980895002709B31C
:140B4400007408954A935A93D59AD49AD39AD298DD9ADC9A21
:140B5800DB9ADA9A4427552702C04F5F5F4F4030E0EF5E07F7
:140B6C00D0F304EA44D0599149910895AA92CA92A22EC02EF9
:140B80000C2D3BD00A2D39D0C990A990089505E134D04CC0B8
:140B9400AA92CA99FECF01E010E017D0F6DF5BD0A02E01E07A
:140BA80010E011D0CA9BFECF0A2DA9900895002701C00395A9
:140BBC000035E8F30895002701C003950E32E8F308950E949E
:140BD000E40BAA240BC0442706C0662701C063956436E8F39D
:140BE40043954436C0F3A3942A2C33242016310680F30C9494
:140BF800EB0BAA924A93A02EDC98DD98D8DF44270BC0A7FE91
:140C0C0002C0DB9A01C0DB98DC9AD5DFDC98D3DFAA0C43958B
:140C2000483098F3DB9A4991A99008954A936A93DC9AD398DD
:140C3400C0DF662709C0DC9AC2DF440FCB9B01C04160DC9811
:140C4800BCDF63956830A8F3D39A042F6991499108954A93E4
:140C5C005A93402F55274030E0E05E070CF431C08BE190E04A
:140C7000841795070CF42BC084E590E0FA01EE0FFF1FE80F68
:140C8400F91F25903490F101099401E01FC002E01DC003E0DA
:140C98001BC004E019C005E017C006E015C007E013C008E097
:140CAC0011C009E00FC000270DC00AE00BC00BE009C00CE062
:140CC00007C00DE005C00EE003C00FE001C00FEF5991499184
:140CD40008954A93609736DFE1C180E0888789878A878B8742
:140CE80010C081E090E0A0E0B0E0288439844A845B84280EFB
:140CFC00391E4A1E5B1E288639864A865B8680E090EFA0E02F
:140D1000B0E0288439844A845B84281639064A065B0618F3F0
:140D240004EA69DF0FEB67DF80E0888389838A838B8313C0E0
:140D380004E610E048DF81E090E0A0E0B0E0288039804A809A
:140D4C005B80280E391E4A1E5B1E288239824A825B8283E0D9
:140D600090E0A0E0B0E0288039804A805B80281639064A062C
:140D74005B0600F304EA3FDF20E800E8FBDE21E801E8F8DE7A
:140D880022E802E8F5DE23E803E8F2DE24E804E8EFDE25E8F8
:140D9C0005E8ECDE26E806E8E9DE27E807E8E6DE08EC10E023
:140DB0000EDF80E08C878D878E878F874FEF2CEF08E8DADE8F
:140DC40028E000E9D7DE28E001E9D4DECA991BC028E807E894
:140DD800CFDED9DE402F2FEF08E8CADE242F22952F7009ECE0
:140DEC00C5DE242F2F7008ECC1DECA9BFECF80E08C878D8712
:140E00008E878F870AE010E0E2DE88EE93E0A0E0B0E02C8470
:140E14003D844E845F84281639064A065B06B0F22FEF08E876
:140E2800A7DE04EAE6DE29E407E9A2DE00E510E0CADE80E025
:140E3C00888389838A838B8315C002EAD8DE0CE010E0BFDE80
:140E500081E090E0A0E0B0E0288039804A805B80280E391E1A
:140E64004A1E5B1E288239824A825B8287E190E0A0E0B0E0A3
:140E7800288039804A805B80281639064A065B06F0F280E0F0
:140E8C00888389838A838B8315C003EAB0DE0CE010E097DE7F
:140EA00081E090E0A0E0B0E0288039804A805B80280E391ECA
:140EB4004A1E5B1E288239824A825B8287E190E0A0E0B0E053
:140EC800288039804A805B80281639064A065B06F0F280E0A0
:140EDC00888389838A838B831CC001EA88DE288039804A8078
:140EF0005B80222D00E840DE02E310E068DE81E090E0A0E052
:140F0400B0E0288039804A805B80280E391E4A1E5B1E28822B
:140F180039824A825B8280E190E0A0E0B0E0288039804A8055
:140F2C005B80281639064A065B06B8F206E910E048DE04EA0B
:140F40005CDE80E0888389838A838B831CC000EA54DE288031
:140F540039804A805B80222D0FEC0CDE02E310E034DE81E0AF
:140F680090E0A0E0B0E0288039804A805B80280E391E4A1EFA
:140F7C005B1E288239824A825B8280E190E0A0E0B0E0288051
:140F900039804A805B80281639064A065B06B8F206E910E038
:140FA40014DE80E0888389838A838B8326C02C803D804E8098
:140FB8005F8056944794379427942C823D824E825F822C8031
:140FCC003D804E805F80222D08E9D0DD04E610E0F8DD81E0AA
:140FE00090E0A0E0B0E0288039804A805B80280E391E4A1E82
:140FF4005B1E288239824A825B8286E090E0A0E0B0E02880D4
:1410080039804A805B80281639064A065B0668F22FEF08E9DF
:14101C00ADDD04E610E0D5DD04EAE9DD80E0888389838A8372
:141030008B8329C0288039804A805B80222D00EE9BDD81E099
:1410440090E0A0E0B0E0288039804A805B80281A390A4A0A39
:141058005B0A222D00EC8CDD04E110E0B4DD81E090E0A0E0C4
:14106C00B0E0288039804A805B80280E391E4A1E5B1E2882C2
:1410800039824A825B8280E490E0A0E0B0E0288039804A80E9
:141094005B80281639064A065B0650F21ECE609649910895A4
:1410A8000E94C50BC22EE02EAE2C36C04AE050E060E070E00A
:1410BC000A851B852C853D857A936A935A934A930E940F0BEE
:1410D000E02E2E2C3324442455246A847B848C849D846218D4
:1410E4007308840895086A867B868C869D864AE050E060E094
:1410F80070E00A851B852C853D857A936A935A934A930E947C
:14110C000D0B0A871B872C873D872E2D0A2D00582DDDA394E2
:141120002C2C33244A2C5524241435041CF60C94BA0B3A9368
:141134002A930E94C50BE02EC888D988AE2C41C04AE050E084
:1411480060E070E00C851D852E853F857A936A935A934A9385
:14115C000E940F0BE02E2E2C3324442455246C847D848E8420
:141170009F8462187308840895086C867D868E869F864AE0D2
:1411840050E060E070E00C851D852E853F857A936A935A93F6
:141198004A930E940D0B0C871D872E873F872A2C33242C140D
:1411AC003D0429F02E2D022D0058E0DC05C02E2D20580A2D68
:1411C0000058DADCA3942A8433244A2C5524241435040CF075
:1411D400B7CF0E94BA0B229608950E94C50BE22EC02E24979A
:1411E80080E0888389838A838B83AC2C05C028E00A2D00572E
:1411FC00BDDCA394EA14CCF7AE2C32C0C5DCE02E2880398072
:141210004A805B804AE050E060E070E05A924A923A922A92EB
:141224008A019B010E94810B088319832A833B832E2C33241E
:1412380027FC3094442437FC4094552447FC509468807980CB
:14124C008A809B80620C731C841C951C688279828A829B820D
:141260002E2D20580A2D085387DCAA94AC1464F605E010E085
:14127400ACDC04EAC0DC088119812A813B8124960C94BA0BAB
:141288008D9A959804EF11E00E94C709959A0CE310E00E94F8
:14129C00C7098D988599FECF859BFECF0895AA924A93A02EED
:1412B0008D9A442717C095980AE010E00E94C709A0FE02C0E8
:1412C400959A01C0959808E210E020E030E00E94AD09959A88
:1412D80001E010E00E94C709A6944395483038F34991A990F7
:1412EC0008954A936A9366270DC046958D9A9598959A8D989A
:14130000859B01C040680DE210E00E94C7096395683088F3F4
:14131400042F6991499108950E94CB0BB3DF0CECC2DF04E496
:14132800C0DFAEDF0CECBDDF0EEBBBDFDCDFA02EBB24D9DF3E
:14133C00C02EDD241601322C22242A283B2851019DDF8501EA
:141350009601222733270C94B50B0E94C10A4A935A9344274D
:14136400552703C000004F5F5F4F2A803B804C805D803A0191
:1413780088249924621473048404950488F3599149912496F1
:14138C0008950E94D00BAA24BB24442755270AC000000000D5
:1413A0000000000000000000000000004F5F5F4F401751072E
:1413B4009CF30C94D50B0E94DA0B66277727442755270BC0B2
:1413C8006627772702C06F5F7F4F6433E8E07E07D0F34F5F33
:1413DC005F4F4017510790F30C94DF0B0E94DA0B66277727E1
:1413F000442755270AC0662777276F5F7F4F603DE7E07E0788
:14140400D4F34F5F5F4F401751079CF30C94DF0B8B9A8C98A0
:141418009398089522242EBC2DBC2CBC80EE8BBD8FEF8ABD7C
:14142C0080EE89BD8FEF88BD80EE87BD8FEF86BD2FBC2EBCED
:1414400008952A928A932FB62A9222242DBC2CBC81E08093F6
:14145400F9032EBC29902FBE899129901895AA92BA92249735
:1414680004EA10E00E94200C088319832A833B83AA24BB2485
:14147C0022242092F903939A0AE010E020E030E00E94AD09F9
:141490009398849BFECF22242DBC2CBC81E08EBD849B04C08B
:1414A4002090F9032220D1F322242EBC2090F903222029F04B
:1414B8008FEF9FEF5C01AE9A03C0ACB4BDB4AE9800EA10E0BB
:1414CC000E94200C180129010CE910E00E94200C38014901C5
:1414E00085010E946D0C3A932A931A930A93830194010E94C8
:1414F400150E810192010E940A0E1801290108E910E00E942C
:14150800200C3A932A931A930A93810192010E949A0C0883E7
:14151C0019832A833B83088119812A813B812496B990A990EE
:1415300008958898D198222426B887B1816687B980E888B955
:14154400379A0895002700B301700895AA92BA92AA24BB2408
:14155800369A3699FECF26E030E004B111270E94C60AA5B049
:14156C00BB24AA0CBB1CAA0CBB1CA02AB12A8501B990A990C5
:1415800008953A932A931A930A930895222321F015950795AD
:141594002A95FACF08956894DA92D12E04C0E894DA92D12E0C
:1415A800D32617FF04C0109500950F5F1F4F37FF04C0309587
:1415BC0020952F5F3F4F0E94EE0AD7FE04C0109500950F5F6F
:1415D0001F4FD9900895689401C0E894EA92FA928A93EE2423
:1415E400FF2480E1000F111FEE1CFF1CE216F30618F0E21A16
:1415F800F30A03958A95A1F716F40E2D1F2D8991F990E990E6
:14160C000895E89401C0689430D0CC2409C0E89401C0689402
:141620002AD037FD0E94F20BB7FD52D0772488249924AA2441
:14163400BB2442D0C1F045D0B1F0E8E2000F111F221F331FAE
:14164800771C881C991CAA1CBB1C88169906AA06BB0628F03F
:14165C00881A990AAA0ABB0A0395EA9559F726F4082D192DC0
:141670002A2D3B2D13C07A928A929A92AA92BA92CA92EA931F
:141684008A939A93AA93BA938B859C85AD85BE85C32E0EF0E9
:14169800CB260895C7FC0E94F20BB991A99199918991E9910C
:1416AC00C990B990A99099908990799024960895E02FE12B92
:1416C000E22BE32B0895E82FE92BEA2BEB2B08958095909531
:1416D400A095B0958F5F9F4FAF4FBF4F08950A921A928A939E
:1416E8009A93029FC001129F900D039F900D8C019991899101
:1416FC001990099008950E94FB0B7A920E94140C59F17724A0
:141710000E941A0C19F48C019D0124C00A921A92089FB02C16
:14172400A12C289F902C812C189FA00C911C871C099FA00CAD
:14173800911C871C199F900C811C0A9F900C811C389F800C17
:14174C00299F800C1A9F800C0B9F800C199009900B2D1A2DF9
:14176000292D382D79900C94090CA990B990C990D99008951B
:14177400A990B990C990D990E990F990499159916991799153
:1417880008957A936A935A934A93FA92EA92DA92CA92BA92C0
:14179C00AA9208955A934A93BA92AA920895A990B990499115
:1417B000599108957A936A935A934A9308954991599169916F
:1417C400799108957A936A935A934A93BA92AA920895A99038
:1417D800B9904991599169917991089500951095209530959B
:1417EC000F5F1F4F2F4F3F4F08958A929A92AA92BA92EA9317
:141800008A939A93AA93BA9389859A85AB85BC850895B9917B
:14181400A99199918991E991B990A9909990899024960895AD
:14182800EE27E02BE12BE22BE32B0895EE27E82BE92BEA2B77
:14183C00EB2B0895EA93FA930A92E02FF12FC895002D3196BF
:14185000C895102D3196C895202D3196C895302D0990F991D5
:14186400E9910895222321F0000F111F2A95FACF08954A92C3
:141878005A926A928A930E943B0D11F15520E2F08FE1481656
:14188C00C0F487E14816D1F058F4419489EE481A05C0359584
:1418A0002795179507954A94D1F70EC087E1481A000F111FB3
:1418B400221F331F4A94D1F705C03FE7232F132F032F04C072
:1418C800662011F00E94F20B89916990599049900895689478
:1418DC0001C0E8942227332746F017FD209517FD309503C07D
:1418F000689401C0E8944A925A926A928A9387E1482E552473
:14190400662436F0332322F40E94F20B80E8682E0E94540D13
:1419180089916990599049900895FA93EA93EA81FB8127D061
:14192C00E991F99122960895FA93EA93EC2FFD2F32961DD048
:14194000E991F99124960895FA93EA93EA81FB8114D0E991E9
:14195400F991398328831A930A930895FA93EA93EC2FFD2F56
:14196800329607D0E991F9913B832A831983088308950A92FD
:14197C001A922A923A920E94990D3A932A931A930A93008186
:141990001181228133810E943B0D09F457C0E62CD52CC42C59
:1419A400B32EA22E912E802E09911991299139910E943B0D5F
:1419B800A1F16E244C185D0880E8481653060CF033C081E8B7
:1419CC0048168FEF58060CF436C080E23324232E122E012E5E
:1419E000302F22271127002726941794079437952795000F55
:1419F400111F221F331F001C111C221C331C28F008181908ED
:141A08002A083B0804C0080C191C2A1C3B1C0AF001608A9531
:141A1C0051F70E94540D0E94A80D39902990199009900895B3
:141A30000FEF102F2FE73FE7662099F30E94F20BF0CF002792
:141A4400102F202F302FEBCF0991199129913991EDCF0FD084
:141A580029F0662011F00E94F20B98940895002329F41123FE
:141A6C0019F4222309F433230895F7DF99F08A93632E80E8AF
:141A80006822220F331F432E8FE7481A55248827580A2695B7
:141A940030E8232B3327899198940895442455246624089593
:141AA800DEDF09F40895AA93BA93D2019A938A938EE790E047
:141ABC00332349F03695279517950795A817B907CCF41196D2
:141AD000F5CF8095909501962223BAF0000F111F221FA8173F
:141AE400B90714F01197F6CF00271127222733278991999177
:141AF8002D01B991A991089533270FEF102F2FE7322F899163
:141B0C0099912D0102C0AA93BA93A7DF49F0D201A158BF4F88
:141B20002D01342D220F369527953629B991A99108954A920E
:141B34005A926A927A928A929A92AA92BA92CA92DA92EA9295
:141B4800FA928A939A93089599918991F990E990D990C9900E
:141B5C00B990A99099908990799069905990499008950E94AE
:141B7000990DAA93BA930E943B0DE1F1E62CD52CC42CB32E91
:141B8400A22E912E802E00811181228133810E943B0D71F15A
:141B98006E244C0C5D1C80E84816530664F581E848168FEF19
:141BAC0058066CF1A29EB12DA02D919E912D802DA09E800D1A
:141BC000911DA31FB31F829E800D911DA31FB31F929E900D13
:141BD400A11DB31FA19E900DA11DB31F2B2F1A2F092F880F8F
:141BE800001F111F221F331F0E94540DB991A9910E94A80D29
:141BFC0008950FEF102F2FE78FE7482EF5CF0027102F202F80
:141C1000302FF0CFFA93EA93EC2FFD2F32960E94B70DE991A9
:141C2400F99124960895FA93EA93EC2FFD2F32960E94B70D4C
:0E1C3800E991F9913B832A831983088308956B
:00000001FF
