:040000000C94B600A6
:140054003804360434043204520452045204520440043E04D6
:140068003C043A04520452045204520448044604440442048A
:14007C00520452045204520450044E044C044A040000204173
:140090000000C840000000000000F00E840DDC0B300BF809A2
:1400A400E008E8070000000000005807A606ED059705FB04D9
:1400B8007004F403000000000000D11D921AAC176216EE13F3
:1400CC00C111D00F00006900740084008C009D00B000C6006F
:1400E000000000000000D100EA0007011701390160018B010A
:1400F40000000000000034003A00420046004E0058006200FA
:1401080005040504060805080B08071005040504060805085F
:14011C000C080B10050405040F080D080B08070806100E0418
:140130000E040D080B080C080B1005040504060805080B0812
:14014400071005040504060805080C080B10050405040F080B
:140158000D080B08070806100E040E040D080B080C080B10CB
:14016C00CFE5D4E0CDBFDEBFCE51D0400AEA08830024E8E351
:14018000F1E011E0E833F10711F00192FBCF0083E4E9F0E018
:14019400A0E6B0E011E000E00BBFEC36F10721F0C895319657
:1401A8000D92F9CF0E942301FFCF84B3806C84BB85B38F73AC
:1401BC0085BB0895202E220C220C220C220C220C220C85B3B8
:1401D0008F7B822985BB0895202E220C220C220C220C220C55
:1401E400220C220C85B38F77822985BB089522242BBA2ABAD6
:1401F80028BA27BA25BA24BA22BA21BA0895222425BC22BC1A
:14020C0088EB84BD88E483BD8FE185BD0895222425BC22BC2A
:1402200080E784BD80E983BD8EE185BD0895F894E0DFBFDF42
:140234000E948F03222425BE2BBE80E889BF7894089526975A
:1402480044275527F0DF04E110E00E94F902222700270E9468
:14025C00DA06B80100300107D1F00430E0E01E0709F450C0D6
:140270000630E0E01E0709F4C5C00730E0E01E0709F4D6C02E
:140284000030E0E01E070CF480C16D30E0E07E0709F4E2C08F
:140298007AC18FEF87BB88BB81BB82BB34C04830E0E05E070A
:1402AC0094F48FEF82BB01E010E09A010E946D0818012094AB
:1402C000309428BA08EC10E00E94F9024F5F5F4F1EC0483051
:1402D400E0E05E07C4F04031E0E05E07A4F48FEF88BB9A01B3
:1402E8002850304001E010E00E946D0818012094309422BAC5
:1402FC0008EC10E00E94F9024F5F5F4F02C044275527CBCFCE
:1403100084E0888380E089838A838B8327E007E00E943F060E
:140324000E9426036CC00E947003A80104E610E00E94F90299
:140338004030E8EF5E0760F14050584F80E098E0841B950B66
:14034C00AC0100E910E00E945908180129018A010E94A808F4
:140360003A932A931A930A93810192010E94430A180129016E
:140374000CE810E00E9459083A932A931A930A9381019201A5
:140388000E94D3080E947408A8014058514C22C000E910E02D
:14039C000E945908180129018A010E94A8083A932A931A93F3
:1403B0000A93810192010E94430A180129010CE810E00E94CF
:1403C40059083A932A931A930A93810192010E94D3080E94BC
:1403D8007408A80181E090E09D838C831A01442437FC409462
:1403EC00552447FC5094288239824A825B8223E000270E9483
:14040000840693CF0E94350701E0E6DE04E610E00E94F90202
:140414000CC00E943707002331F401E0DBDE04E110E00E94CF
:14042800F9020027D5DEF3CF0E942F0701E0C4DE04E610E0F4
:14043C000E94F9020CC00E943107002331F401E0B9DE04E1C4
:1404500010E00E94F9020027B3DEF3CF0E94260322E000279D
:140464000E94DA0658010AE010E095010E94AA0758018AC043
:140478000E947003A80104E610E00E94F9024030E8EF5E078F
:14048C0060F14050584F80E098E0841B950BAC0100E910E037
:1404A0000E945908180129018A010E94A8083A932A931A93EE
:1404B4000A93810192010E94430A180129010CE810E00E94CA
:1404C80059083A932A931A930A93810192010E94D3080E94B7
:1404DC007408A8014058514C22C000E910E00E9459081801DB
:1404F00029018A010E94A8083A932A931A930A938101920108
:140504000E94430A180129010CE810E00E9459083A932A9340
:140518001A930A93810192010E94D3080E947408A801A41672
:14052C00B5061CF4AE9AAF9A05C0A416B50614F0AF98AE9894
:1405400081E090E09D838C831A01442437FC4094552447FC61
:140554005094288239824A825B8223E000270E94840685E0E6
:1405680090E09D838C831501442437FC4094552447FC5094BB
:14057C00288239824A825B8227E004E00E94840675CF269646
:1405900008950E943B074A935A934427552703C000004F5FB4
:1405A4005F4F2A803B804C805D803A018824992462147304F6
:1405B8008404950488F359914991249608950E940908AA24F7
:1405CC00BB24442755270AC00000000000000000000000008B
:1405E000000000004F5F5F4F401751079CF30C940E080E9415
:1405F400130866277727442755270BC06627772702C06F5F40
:140608007F4F6433E8E07E07D0F34F5F5F4F4017510790F3DB
:14061C000C9418080E94130866277727442755270AC06627E4
:1406300077276F5F7F4F603DE7E07E07D4F34F5F5F4F401719
:1406440051079CF30C9418088D9A959804EF11E00E94E3023C
:14065800959A0CE310E00E94E3028D988599FECF859BFECFFC
:14066C000895AA924A93A02E8D9A442717C095980AE010E086
:140680000E94E302A0FE02C0959A01C0959808E210E020E088
:1406940030E00E94C902959A01E010E00E94E302A69443953C
:1406A800483038F34991A99008954A936A9366270DC04695DC
:1406BC008D9A9598959A8D98859B01C040680DE210E00E9478
:1406D000E3026395683088F3042F6991499108950E940408D4
:1406E400B3DF0CECC2DF04E4C0DFAEDF0CECBDDF0EEBBBDF9C
:1406F800DCDFA02EBB24D9DFC02EDD241601322C22242A28D2
:14070C003B2851019DDF85019601222733270C94EE074A9376
:140720005A93D59AD49AD39AD298DD9ADC9ADB9ADA9A4427E3
:14073400552702C04F5F5F4F4030E0EF5E07D0F304EA44D0AE
:14074800599149910895AA92CA92A22EC02E0C2D3BD00A2D6B
:14075C0039D0C990A990089505E134D04CC0AA92CA99FECFEF
:1407700001E010E017D0F6DF5BD0A02E01E010E011D0CA9BD8
:14078400FECF0A2DA9900895002701C003950035E8F308955A
:14079800002701C003950E32E8F308950E941D08AA240BC0B5
:1407AC00442706C0662701C063956436E8F343954436C0F348
:1407C000A3942A2C33242016310680F30C942408AA924A937C
:1407D400A02EDC98DD98D8DF44270BC0A7FE02C0DB9A01C0D0
:1407E800DB98DC9AD5DFDC98D3DFAA0C4395483098F3DB9A34
:1407FC004991A99008954A936A93DC9AD398C0DF662709C089
:14081000DC9AC2DF440FCB9B01C04160DC98BCDF6395683003
:14082400A8F3D39A042F6991499108954A935A93402F55275F
:140838004030E0E05E070CF431C08BE190E0841795070CF413
:14084C002BC084E590E0FA01EE0FFF1FE80FF91F2590349036
:14086000F101099401E01FC002E01DC003E01BC004E019C0FB
:1408740005E017C006E015C007E013C008E011C009E00FC0CE
:1408880000270DC00AE00BC00BE009C00CE007C00DE005C09A
:14089C000EE003C00FE001C00FEF5991499108954A936097B4
:1408B00036DFE1C180E0888789878A878B8710C081E090E03A
:1408C400A0E0B0E0288439844A845B84280E391E4A1E5B1E8C
:1408D800288639864A865B8680E090EFA0E0B0E02884398496
:1408EC004A845B84281639064A065B0618F304EA69DF0FEBE2
:1409000067DF80E0888389838A838B8313C004E610E048DF37
:1409140081E090E0A0E0B0E0288039804A805B80280E391E5B
:140928004A1E5B1E288239824A825B8283E090E0A0E0B0E0E9
:14093C00288039804A805B80281639064A065B0600F304EA92
:140950003FDF20E800E8FBDE21E801E8F8DE22E802E8F5DE1D
:1409640023E803E8F2DE24E804E8EFDE25E805E8ECDE26E822
:1409780006E8E9DE27E807E8E6DE08EC10E00EDF80E08C87B0
:14098C008D878E878F874FEF2CEF08E8DADE28E000E9D7DE71
:1409A00028E001E9D4DECA991BC028E807E8CFDED9DE402F8F
:1409B4002FEF08E8CADE242F22952F7009ECC5DE242F2F7046
:1409C80008ECC1DECA9BFECF80E08C878D878E878F870AE0BA
:1409DC0010E0E2DE88EE93E0A0E0B0E02C843D844E845F8438
:1409F000281639064A065B06B0F22FEF08E8A7DE04EAE6DEDE
:140A040029E407E9A2DE00E510E0CADE80E0888389838A8360
:140A18008B8315C002EAD8DE0CE010E0BFDE81E090E0A0E07B
:140A2C00B0E0288039804A805B80280E391E4A1E5B1E288208
:140A400039824A825B8287E190E0A0E0B0E0288039804A802B
:140A54005B80281639064A065B06F0F280E0888389838A831F
:140A68008B8315C003EAB0DE0CE010E097DE81E090E0A0E07A
:140A7C00B0E0288039804A805B80280E391E4A1E5B1E2882B8
:140A900039824A825B8287E190E0A0E0B0E0288039804A80DB
:140AA4005B80281639064A065B06F0F280E0888389838A83CF
:140AB8008B831CC001EA88DE288039804A805B80222D00E8B2
:140ACC0040DE02E310E068DE81E090E0A0E0B0E0288039809B
:140AE0004A805B80280E391E4A1E5B1E288239824A825B82E1
:140AF40080E190E0A0E0B0E0288039804A805B80281639068A
:140B08004A065B06B8F206E910E048DE04EA5CDE80E08883E6
:140B1C0089838A838B831CC000EA54DE288039804A805B80A0
:140B3000222D0FEC0CDE02E310E034DE81E090E0A0E0B0E0B5
:140B4400288039804A805B80280E391E4A1E5B1E28823982C4
:140B58004A825B8280E190E0A0E0B0E0288039804A805B80F9
:140B6C00281639064A065B06B8F206E910E014DE80E0888361
:140B800089838A838B8326C02C803D804E805F805694479479
:140B9400379427942C823D824E825F822C803D804E805F8093
:140BA800222D08E9D0DD04E610E0F8DD81E090E0A0E0B0E0BC
:140BBC00288039804A805B80280E391E4A1E5B1E288239824C
:140BD0004A825B8286E090E0A0E0B0E0288039804A805B807C
:140BE400281639064A065B0668F22FEF08E9ADDD04E610E002
:140BF800D5DD04EAE9DD80E0888389838A838B8329C0288060
:140C0C0039804A805B80222D00EE9BDD81E090E0A0E0B0E0E0
:140C2000288039804A805B80281A390A4A0A5B0A222D00EC41
:140C34008CDD04E110E0B4DD81E090E0A0E0B0E0288039809B
:140C48004A805B80280E391E4A1E5B1E288239824A825B8277
:140C5C0080E490E0A0E0B0E0288039804A805B80281639061D
:140C70004A065B0650F21ECE6096499108950E94FE07C22E8D
:140C8400E02EAE2C36C04AE050E060E070E00A851B852C85B4
:140C98003D857A936A935A934A930E944807E02E2E2C332402
:140CAC00442455246A847B848C849D84621873088408950817
:140CC0006A867B868C869D864AE050E060E070E00A851B85E1
:140CD4002C853D857A936A935A934A930E9446070A871B87A3
:140CE8002C873D872E2D0A2D00582DDDA3942C2C33244A2C31
:140CFC005524241435041CF60C94F3073A932A930E94FE071D
:140D1000E02EC888D988AE2C41C04AE050E060E070E00C85BA
:140D24001D852E853F857A936A935A934A930E944807E02ECF
:140D38002E2C3324442455246C847D848E849F8462187308FA
:140D4C00840895086C867D868E869F864AE050E060E070E052
:140D60000C851D852E853F857A936A935A934A930E94460712
:140D74000C871D872E873F872A2C33242C143D0429F02E2D17
:140D8800022D0058E0DC05C02E2D20580A2D0058DADCA39400
:140D9C002A8433244A2C5524241435040CF0B7CF0E94F307C0
:140DB000229608950E94FE07E22EC02E249780E08883898303
:140DC4008A838B83AC2C05C028E00A2D0057BDDCA394EA14FF
:140DD800CCF7AE2C32C0C5DCE02E288039804A805B804AE099
:140DEC0050E060E070E05A924A923A922A928A019B010E941A
:140E0000BA07088319832A833B832E2C332427FC309444248B
:140E140037FC4094552447FC5094688079808A809B80620CAF
:140E2800731C841C951C688279828A829B822E2D20580A2DBE
:140E3C00085387DCAA94AC1464F605E010E0ACDC04EAC0DCA5
:140E5000088119812A813B8124960C94F307899808950027CB
:140E640000B302700895D6980895002709B3007408953A93EC
:140E78002A931A930A930895E89401C0689430D0CC2409C0D0
:140E8C00E89401C068942AD037FD0E942B08B7FD52D07724A5
:140EA00088249924AA24BB2442D0C1F045D0B1F0E8E2000FD6
:140EB400111F221F331F771C881C991CAA1CBB1C88169906A1
:140EC800AA06BB0628F0881A990AAA0ABB0A0395EA9559F768
:140EDC0026F4082D192D2A2D3B2D13C07A928A929A92AA924B
:140EF000BA92CA92EA938A939A93AA93BA938B859C85AD8592
:140F0400BE85C32E0EF0CB260895C7FC0E942B08B991A991FD
:140F180099918991E991C990B990A990999089907990249627
:140F2C000895E02FE12BE22BE32B0895E82FE92BEA2BEB2BEB
:140F4000089580959095A095B0958F5F9F4FAF4FBF4F0895C7
:140F54000A921A928A939A93029FC001129F900D039F900D08
:140F68008C01999189911990099008950E9434087A920E9439
:140F7C004D0859F177240E94530819F48C019D0124C00A9272
:140F90001A92089FB02CA12C289F902C812C189FA00C911C11
:140FA400871C099FA00C911C871C199F900C811C0A9F900CBC
:140FB800811C389F800C299F800C1A9F800C0B9F800C1990AD
:140FCC0009900B2D1A2D292D382D79900C944208A990B990C9
:140FE000C990D9900895A990B990C990D990E990F99049917E
:140FF40059916991799108957A936A935A934A93FA92EA9282
:14100800DA92CA92BA92AA9208955A934A93BA92AA920895F8
:14101C00A990B9904991599108957A936A935A934A9308956C
:14103000499159916991799108957A936A935A934A93BA9227
:14104400AA920895A990B99049915991699179910895009543
:141058001095209530950F5F1F4F2F4F3F4F08958A929A9298
:14106C00AA92BA92EA938A939A93AA93BA9389859A85AB853A
:14108000BC850895B991A99199918991E991B990A990999091
:14109400899024960895EE27E02BE12BE22BE32B0895EE27DF
:1410A800E82BE92BEA2BEB2B0895EA93FA930A92E02FF12F70
:1410BC00C895002D3196C895102D3196C895202D3196C895A0
:1410D000302D0990F991E9910895222321F0000F111F2A9521
:1410E400FACF08954A925A926A928A930E94740911F155201B
:1410F800E2F08FE14816C0F487E14816D1F058F4419489EE71
:14110C00481A05C035952795179507954A94D1F70EC087E1FE
:14112000481A000F111F221F331F4A94D1F705C03FE7232FA4
:14113400132F032F04C0662011F00E942B0889916990599017
:1411480049900895689401C0E8942227332746F017FD209542
:14115C0017FD309503C0689401C0E8944A925A926A928A93C9
:1411700087E1482E5524662436F0332322F40E942B0880E8BB
:14118400682E0E948D0989916990599049900895FA93EA930D
:14119800EA81FB8127D0E991F99122960895FA93EA93EC2FE7
:1411AC00FD2F32961DD0E991F99124960895FA93EA93EA817E
:1411C000FB8114D0E991F991398328831A930A930895FA93DC
:1411D400EA93EC2FFD2F329607D0E991F9913B832A83198399
:1411E800088308950A921A922A923A920E94D2093A932A93F4
:1411FC001A930A9300811181228133810E94740909F457C0F8
:14121000E62CD52CC42CB32EA22E912E802E099119912991AB
:1412240039910E947409A1F16E244C185D0880E848165306C1
:141238000CF033C081E848168FEF58060CF436C080E2332461
:14124C00232E122E012E302F222711270027269417940794C7
:1412600037952795000F111F221F331F001C111C221C331C4A
:1412740028F0081819082A083B0804C0080C191C2A1C3B1CEE
:141288000AF001608A9551F70E948D090E94E109399029904A
:14129C001990099008950FEF102F2FE73FE7662099F30E9432
:1412B0002B08F0CF0027102F202F302FEBCF0991199129916C
:1412C4003991EDCF0FD029F0662011F00E942B089894089573
:1412D800002329F4112319F4222309F433230895F7DF99F0ED
:1412EC008A93632E80E86822220F331F432E8FE7481A552409
:141300008827580A269530E8232B3327899198940895442402
:14131400552466240895DEDF09F40895AA93BA93D2019A9344
:141328008A938EE790E0332349F03695279517950795A81792
:14133C00B907CCF41196F5CF8095909501962223BAF0000FE3
:14135000111F221FA817B90714F01197F6CF00271127222780
:141364003327899199912D01B991A991089533270FEF102FF1
:141378002FE7322F899199912D0102C0AA93BA93A7DF49F06D
:14138C00D201A158BF4F2D01342D220F369527953629B99183
:1413A000A99108954A925A926A927A928A929A92AA92BA92C2
:1413B400CA92DA92EA92FA928A939A93089599918991F990A1
:1413C800E990D990C990B990A9909990899079906990599027
:1413DC00499008950E94D209AA93BA930E947409E1F1E62C7D
:1413F000D52CC42CB32EA22E912E802E008111812281338170
:141404000E94740971F16E244C0C5D1C80E84816530664F578
:1414180081E848168FEF58066CF1A29EB12DA02D919E912DE8
:14142C00802DA09E800D911DA31FB31F829E800D911DA31FD5
:14144000B31F929E900DA11DB31FA19E900DA11DB31F2B2FA3
:141454001A2F092F880F001F111F221F331F0E948D09B99108
:14146800A9910E94E10908950FEF102F2FE78FE7482EF5CF0A
:14147C000027102F202F302FF0CFFA93EA93EC2FFD2F329670
:0C1490000E94F009E991F991249608955A
:00000001FF
