:040000000C94C0009C
:040020000C948607AF
:14005400B203B003AE03AC03CC03CC03CC03CC03BA03B8031C
:14006800B603B403CC03CC03CC03CC03C203C003BE03BC03D0
:14007C00CC03CC03CC03CC03CA03C803C603C40300002041AB
:140090000000C8400000E14A00002A4300007A4400000000FE
:1400A4000000000000000000F00E840DDC0B300BF809E008AE
:1400B800E8070000000000005807A606ED059705FB04700439
:1400CC00F403000000000000D11D921AAC176216EE13C11181
:1400E000D00F00006900740084008C009D00B000C60000002D
:1400F40000000000D100EA0007011701390160018B010000F6
:140108000000000034003A00420046004E00580062000504DC
:14011C000504060805080B08071005040504060805080C0840
:140130000B10050405040F080D080B08070806100E040E0406
:140144000D080B080C080B1005040504060805080B080710F9
:1401580005040504060805080C080B10050405040F080D08F9
:13016C000B08070806100E040E040D080B080C080B1000CD
:14018000CFE5D4E0CDBFDEBFCE51D0400AEA08830024EBE33A
:14019400F1E011E0EB33F10711F00192FBCF0083E4EAF0E000
:1401A800A0E6B0E011E000E00BBFEF37F10721F0C89531963F
:1401BC000D92F9CF0E942D01FFCF84B3806C84BB85B38F738E
:1401D00085BB0895202E220C220C220C220C220C220C85B3A4
:1401E4008F7B822985BB0895202E220C220C220C220C220C41
:1401F800220C220C85B38F77822985BB089522242BBA2ABAC2
:14020C0028BA27BA25BA24BA22BA21BA0895222425BC22BC05
:1402200088EB84BD88E483BD8FE185BD0895222425BC22BC16
:1402340080E784BD80E983BD8EE185BD0895F894E0DFBFDF2E
:140248000E940903222425BE2BBE80E889BF789408952697CC
:14025C0044275527F0DF04E110E00E944207222700270E9406
:140270005406B80100300107F9F00430E0E01E0709F455C01B
:140284000530E0E01E0709F4CAC00630E0E01E0709F4EAC003
:140298000730E0E01E0709F4FBC00030E0E01E070CF4A5C103
:1402AC006D30E0E07E0709F407C19FC18FEF87BB88BB81BBF8
:1402C00082BB34C04830E0E05E0794F48FEF82BB01E010E048
:1402D4009A010E94300918012094309428BA08EC10E00E94A7
:1402E80042074F5F5F4F1EC04830E0E05E07C4F04031E0E0FD
:1402FC005E07A4F48FEF88BB9A012850304001E010E00E943A
:14031000300918012094309422BA08EC10E00E9442074F5FB6
:140324005F4F02C044275527CBCF84E0888380E089838A83EC
:140338008B8327E007E00E94B9050E94A9066CC00E94F3063D
:14034C00A80104E610E00E9442074030E8EF5E0760F14050A2
:14036000584F80E098E0841B950BAC0100E910E00E941C097E
:14037400180129018A010E946B093A932A931A930A9381013B
:1403880092010E94060B180129010CE810E00E941C093A9360
:14039C002A931A930A93810192010E9496090E943709A80165
:1403B0004058514C22C000E910E00E941C09180129018A01B4
:1403C4000E946B093A932A931A930A93810192010E94060B73
:1403D800180129010CE810E00E941C093A932A931A930A934F
:1403EC00810192010E9496090E943709A80181E090E09D832B
:140400008C831A01442437FC4094552447FC5094288239824A
:140414004A825B8223E000270E94FE0593CF0E946F07F89456
:140428000E947307222425BE2BBE89B7846089BF789417C043
:14043C000E9496070E9437091093650000936400180144240B
:140450005524288239824A825B8223E000270E94B90504E69D
:1404640010E00E944207E8CF0E94030301E0BCDE04E610E0F5
:140478000E9442070CC00E940503002331F401E0B1DE04E172
:14048C0010E00E9442070027ABDEF3CF0E94FD0201E09ADE15
:1404A00004E610E00E9442070CC00E94FF02002331F401E0EB
:1404B4008FDE04E110E00E944207002789DEF3CF0E94A90666
:1404C80022E000270E94540658010AE010E095010E946D081B
:1404DC0058018AC00E94F306A80104E610E00E9442074030F0
:1404F000E8EF5E0760F14050584F80E098E0841B950BAC0170
:1405040000E910E00E941C09180129018A010E946B093A9392
:140518002A931A930A93810192010E94060B180129010CE8C9
:14052C0010E00E941C093A932A931A930A93810192010E9479
:1405400096090E943709A8014058514C22C000E910E00E94EB
:140554001C09180129018A010E946B093A932A931A930A93B6
:14056800810192010E94060B180129010CE810E00E941C09C9
:14057C003A932A931A930A93810192010E9496090E9437095F
:14059000A801A416B5061CF4AE9AAF9A05C0A416B50614F05A
:1405A400AF98AE9881E090E09D838C831A01442437FC40942C
:1405B800552447FC5094288239824A825B8223E000270E94B5
:1405CC00FE0585E090E09D838C831501442437FC4094552416
:1405E00047FC5094288239824A825B8227E004E00E94FE0542
:1405F40075CF2696089589980895002700B302700895D69841
:140608000895002709B3007408954A935A93D59AD49AD39A39
:14061C00D298DD9ADC9ADB9ADA9A4427552702C04F5F5F4F85
:140630004030E0EF5E07D0F304EA44D0599149910895AA92B0
:14064400CA92A22EC02E0C2D3BD00A2D39D0C990A9900895D5
:1406580005E134D04CC0AA92CA99FECF01E010E017D0F6DF9F
:14066C005BD0A02E01E010E011D0CA9BFECF0A2DA990089590
:14068000002701C003950035E8F30895002701C003950E3279
:14069400E8F308950E94E008AA240BC0442706C0662701C038
:1406A80063956436E8F343954436C0F3A3942A2C33242016B2
:1406BC00310680F30C94E708AA924A93A02EDC98DD98D8DF6A
:1406D00044270BC0A7FE02C0DB9A01C0DB98DC9AD5DFDC9832
:1406E400D3DFAA0C4395483098F3DB9A4991A99008954A93BD
:1406F8006A93DC9AD398C0DF662709C0DC9AC2DF440FCB9B4B
:14070C0001C04160DC98BCDF63956830A8F3D39A042F6991A3
:14072000499108954A935A93402F55274030E0E05E070CF404
:1407340031C08BE190E0841795070CF42BC084E590E0FA01EE
:14074800EE0FFF1FE80FF91F25903490F101099401E01FC0AB
:14075C0002E01DC003E01BC004E019C005E017C006E015C0D8
:1407700007E013C008E011C009E00FC000270DC00AE00BC0A1
:140784000BE009C00CE007C00DE005C00EE003C00FE001C0E7
:140798000FEF5991499108954A93609736DFE1C180E08887F4
:1407AC0089878A878B8710C081E090E0A0E0B0E028843984EC
:1407C0004A845B84280E391E4A1E5B1E288639864A865B86EC
:1407D40080E090EFA0E0B0E0288439844A845B84281639068F
:1407E8004A065B0618F304EA69DF0FEB67DF80E08883898354
:1407FC008A838B8313C004E610E048DF81E090E0A0E0B0E019
:14081000288039804A805B80280E391E4A1E5B1E28823982FB
:140824004A825B8283E090E0A0E0B0E0288039804A805B802E
:14083800281639064A065B0600F304EA3FDF20E800E8FBDEB6
:14084C0021E801E8F8DE22E802E8F5DE23E803E8F2DE24E837
:1408600004E8EFDE25E805E8ECDE26E806E8E9DE27E807E846
:14087400E6DE08EC10E00EDF80E08C878D878E878F874FEFEB
:140888002CEF08E8DADE28E000E9D7DE28E001E9D4DECA99EC
:14089C001BC028E807E8CFDED9DE402F2FEF08E8CADE242F92
:1408B00022952F7009ECC5DE242F2F7008ECC1DECA9BFECF8F
:1408C40080E08C878D878E878F870AE010E0E2DE88EE93E0EB
:1408D800A0E0B0E02C843D844E845F84281639064A065B06A8
:1408EC00B0F22FEF08E8A7DE04EAE6DE29E407E9A2DE00E5AF
:1409000010E0CADE80E0888389838A838B8315C002EAD8DE42
:140914000CE010E0BFDE81E090E0A0E0B0E0288039804A804A
:140928005B80280E391E4A1E5B1E288239824A825B8287E1FC
:14093C0090E0A0E0B0E0288039804A805B80281639064A0654
:140950005B06F0F280E0888389838A838B8315C003EAB0DE6E
:140964000CE010E097DE81E090E0A0E0B0E0288039804A8022
:140978005B80280E391E4A1E5B1E288239824A825B8287E1AC
:14098C0090E0A0E0B0E0288039804A805B80281639064A0604
:1409A0005B06F0F280E0888389838A838B831CC001EA88DE41
:1409B400288039804A805B80222D00E840DE02E310E068DEB9
:1409C80081E090E0A0E0B0E0288039804A805B80280E391EA7
:1409DC004A1E5B1E288239824A825B8280E190E0A0E0B0E037
:1409F000288039804A805B80281639064A065B06B8F206E926
:140A040010E048DE04EA5CDE80E0888389838A838B831CC032
:140A180000EA54DE288039804A805B80222D0FEC0CDE02E38F
:140A2C0010E034DE81E090E0A0E0B0E0288039804A805B80CD
:140A4000280E391E4A1E5B1E288239824A825B8280E190E055
:140A5400A0E0B0E0288039804A805B80281639064A065B064A
:140A6800B8F206E910E014DE80E0888389838A838B8326C087
:140A7C002C803D804E805F8056944794379427942C823D8298
:140A90004E825F822C803D804E805F80222D08E9D0DD04E6B4
:140AA40010E0F8DD81E090E0A0E0B0E0288039804A805B8092
:140AB800280E391E4A1E5B1E288239824A825B8286E090E0D8
:140ACC00A0E0B0E0288039804A805B80281639064A065B06D2
:140AE00068F22FEF08E9ADDD04E610E0D5DD04EAE9DD80E06F
:140AF400888389838A838B8329C0288039804A805B80222D7E
:140B080000EE9BDD81E090E0A0E0B0E0288039804A805B808C
:140B1C00281A390A4A0A5B0A222D00EC8CDD04E110E0B4DD7D
:140B300081E090E0A0E0B0E0288039804A805B80280E391E3D
:140B44004A1E5B1E288239824A825B8280E490E0A0E0B0E0CA
:140B5800288039804A805B80281639064A065B0650F21ECE27
:140B6C006096499108950E94C108C22EE02EAE2C36C04AE0A5
:140B800050E060E070E00A851B852C853D857A936A935A9308
:140B94004A930E940B08E02E2E2C3324442455246A847B842E
:140BA8008C849D8462187308840895086A867B868C869D86C4
:140BBC004AE050E060E070E00A851B852C853D857A936A938F
:140BD0005A934A930E9409080A871B872C873D872E2D0A2D58
:140BE40000582DDDA3942C2C33244A2C5524241435041CF643
:140BF8000C94B6083A932A930E94C108E02EC888D988AE2CFD
:140C0C0041C04AE050E060E070E00C851D852E853F857A9332
:140C20006A935A934A930E940B08E02E2E2C332444245524A4
:140C34006C847D848E849F8462187308840895086C867D8673
:140C48008E869F864AE050E060E070E00C851D852E853F85CB
:140C5C007A936A935A934A930E9409080C871D872E873F874B
:140C70002A2C33242C143D0429F02E2D022D0058E0DC05C0C6
:140C84002E2D20580A2D0058DADCA3942A8433244A2C552419
:140C9800241435040CF0B7CF0E94B608229608950E94C10835
:140CAC00E22EC02E249780E0888389838A838B83AC2C05C04C
:140CC00028E00A2D0057BDDCA394EA14CCF7AE2C32C0C5DC8C
:140CD400E02E288039804A805B804AE050E060E070E05A9222
:140CE8004A923A922A928A019B010E947D08088319832A8372
:140CFC003B832E2C332427FC3094442437FC4094552447FC63
:140D10005094688079808A809B80620C731C841C951C6882AD
:140D240079828A829B822E2D20580A2D085387DCAA94AC14D1
:140D380064F605E010E0ACDC04EAC0DC088119812A813B81DC
:140D4C0024960C94B6088D9A959804EF11E00E942C07959A3F
:140D60000CE310E00E942C078D988599FECF859BFECF089531
:140D7400AA924A93A02E8D9A442717C095980AE010E00E9472
:140D88002C07A0FE02C0959A01C0959808E210E020E030E0BD
:140D9C000E941207959A01E010E00E942C07A6944395483029
:140DB00038F34991A99008954A936A9366270DC046958D9A1E
:140DC4009598959A8D98859B01C040680DE210E00E942C075D
:140DD8006395683088F3042F6991499108950E94C708B3DF55
:140DEC000CECC2DF04E4C0DFAEDF0CECBDDF0EEBBBDFDCDF64
:140E0000A02EBB24D9DFC02EDD241601322C22242A283B281A
:140E140051019DDF85019601222733270C94B1080E94FE073C
:140E28004A935A934427552703C000004F5F5F4F2A803B8081
:140E3C004C805D803A0188249924621473048404950488F3CC
:140E500059914991249608950E94CC08AA24BB244427552769
:140E64000AC0000000000000000000000000000000004F5F02
:140E78005F4F401751079CF30C94D1080E94D6086627772756
:140E8C00442755270BC06627772702C06F5F7F4F6433E8E0B8
:140EA0007E07D0F34F5F5F4F4017510790F30C94DB080E9443
:140EB400D60866277727442755270AC0662777276F5F7F4FA9
:140EC800603DE7E07E07D4F34F5F5F4F401751079CF30C942C
:140EDC00DB088B9A8C989398089522242EBC2DBC2CBC80EE9F
:140EF0008BBD8FEF8ABD80EE89BD8FEF88BD80EE87BD8FEF3A
:140F040086BD2FBC2EBC08952A928A932FB62A9222242DBC7B
:140F18002CBC81E080933A012EBC29902FBE8991299018951E
:140F2C00AA92BA92249700EA10E00E941C09088319832A83F9
:140F40003B83AA24BB24222420923A01939A0AE010E020E0F8
:140F540030E00E9412079398849BFECF22242DBC2CBC81E02F
:140F68008EBD849B04C020903A012220D1F322242EBC209076
:140F7C003A01222029F08FEF9FEF5C01AE9A03C0ACB4BDB486
:140F9000AE980CE910E00E941C091801290108E910E00E9495
:140FA4001C093801490185010E9469093A932A931A930A9323
:140FB800830194010E94110B810192010E94060B1801290143
:140FCC0004E910E00E941C093A932A931A930A938101920184
:140FE0000E949609088319832A833B83088119812A813B81A0
:140FF4002496B990A99008953A932A931A930A930895E89423
:1410080001C0689430D0CC2409C0E89401C068942AD037FDF7
:14101C000E94EE08B7FD52D0772488249924AA24BB2442D08F
:14103000C1F045D0B1F0E8E2000F111F221F331F771C881C72
:14104400991CAA1CBB1C88169906AA06BB0628F0881A990A3B
:14105800AA0ABB0A0395EA9559F726F4082D192D2A2D3B2D50
:14106C0013C07A928A929A92AA92BA92CA92EA938A939A939E
:14108000AA93BA938B859C85AD85BE85C32E0EF0CB260895AF
:14109400C7FC0E94EE08B991A99199918991E991C990B99009
:1410A800A99099908990799024960895E02FE12BE22BE32B23
:1410BC000895E82FE92BEA2BEB2B089580959095A095B095DC
:1410D0008F5F9F4FAF4FBF4F08950A921A928A939A93029F54
:1410E400C001129F900D039F900D8C01999189911990099097
:1410F80008950E94F7087A920E94100959F177240E94160939
:14110C0019F48C019D0124C00A921A92089FB02CA12C289F54
:14112000902C812C189FA00C911C871C099FA00C911C871CFB
:14113400199F900C811C0A9F900C811C389F800C299F800C1D
:141148001A9F800C0B9F800C199009900B2D1A2D292D382D9C
:14115C0079900C940509A990B990C990D9900895A990B99065
:14117000C990D990E990F990499159916991799108957A9335
:141184006A935A934A93FA92EA92DA92CA92BA92AA9208959B
:141198005A934A93BA92AA920895A990B99049915991089571
:1411AC007A936A935A934A9308954991599169917991089559
:1411C0007A936A935A934A93BA92AA920895A990B9904991C6
:1411D400599169917991089500951095209530950F5F1F4FEC
:1411E8002F4F3F4F08958A929A92AA92BA92EA938A939A93B3
:1411FC00AA93BA9389859A85AB85BC850895B991A99199916C
:141210008991E991B990A9909990899024960895EE27E02BFB
:14122400E12BE22BE32B0895EE27E82BE92BEA2BEB2B0895EE
:14123800EA93FA930A92E02FF12FC895002D3196C895102DE2
:14124C003196C895202D3196C895302D0990F991E991089562
:14126000222321F0000F111F2A95FACF08954A925A926A92FC
:141274008A930E94370A11F15520E2F08FE14816C0F487E133
:141288004816D1F058F4419489EE481A05C035952795179542
:14129C0007954A94D1F70EC087E1481A000F111F221F331F92
:1412B0004A94D1F705C03FE7232F132F032F04C0662011F088
:1412C4000E94EE0889916990599049900895689401C0E894D3
:1412D8002227332746F017FD209517FD309503C0689401C007
:1412EC00E8944A925A926A928A9387E1482E5524662436F08A
:14130000332322F40E94EE0880E8682E0E94500A89916990C8
:14131400599049900895FA93EA93EA81FB8127D0E991F9917A
:1413280022960895FA93EA93EC2FFD2F32961DD0E991F99152
:14133C0024960895FA93EA93EA81FB8114D0E991F9913983B1
:1413500028831A930A930895FA93EA93EC2FFD2F329607D007
:14136400E991F9913B832A831983088308950A921A922A923E
:141378003A920E94950A3A932A931A930A93008111812281CA
:14138C0033810E94370A09F457C0E62CD52CC42CB32EA22EEE
:1413A000912E802E09911991299139910E94370AA1F16E24FD
:1413B4004C185D0880E8481653060CF033C081E848168FEF09
:1413C80058060CF436C080E23324232E122E012E302F22279C
:1413DC001127002726941794079437952795000F111F221F96
:1413F000331F001C111C221C331C28F0081819082A083B08F3
:1414040004C0080C191C2A1C3B1C0AF001608A9551F70E94C6
:14141800500A0E94A40A399029901990099008950FEF102F78
:14142C002FE73FE7662099F30E94EE08F0CF0027102F202F52
:14144000302FEBCF0991199129913991EDCF0FD029F066207D
:1414540011F00E94EE0898940895002329F4112319F422235C
:1414680009F433230895F7DF99F08A93632E80E86822220F50
:14147C00331F432E8FE7481A55248827580A269530E8232B16
:1414900033278991989408954424552466240895DEDF09F449
:1414A4000895AA93BA93D2019A938A938EE790E0332349F07C
:1414B8003695279517950795A817B907CCF41196F5CF809592
:1414CC00909501962223BAF0000F111F221FA817B90714F05E
:1414E0001197F6CF0027112722273327899199912D01B991CD
:1414F400A991089533270FEF102F2FE7322F899199912D018D
:1415080002C0AA93BA93A7DF49F0D201A158BF4F2D01342D5B
:14151C00220F369527953629B991A99108954A925A926A92BF
:141530007A928A929A92AA92BA92CA92DA92EA92FA928A93DE
:141544009A93089599918991F990E990D990C990B990A9903F
:1415580099908990799069905990499008950E94950AAA935E
:14156C00BA930E94370AE1F1E62CD52CC42CB32EA22E912EF6
:14158000802E00811181228133810E94370A71F16E244C0C10
:141594005D1C80E84816530664F581E848168FEF58066CF152
:1415A800A29EB12DA02D919E912D802DA09E800D911DA31F6F
:1415BC00B31F829E800D911DA31FB31F929E900DA11DB31FFD
:1415D000A19E900DA11DB31F2B2F1A2F092F880F001F111FDA
:1415E400221F331F0E94500AB991A9910E94A40A08950FEFF5
:1415F800102F2FE78FE7482EF5CF0027102F202F302FF0CF07
:14160C00FA93EA93EC2FFD2F32960E94B30AE991F991249694
:141620000895FA93EA93EC2FFD2F32960E94B30AE991F9919D
:0A1634003B832A831983088308957D
:00000001FF
